{
  "contractName": "DonationTracker",
  "abi": [
    {
      "anonymous": false,
      "inputs": [
        {
          "indexed": true,
          "internalType": "address",
          "name": "sender",
          "type": "address"
        },
        {
          "indexed": true,
          "internalType": "address",
          "name": "receiver",
          "type": "address"
        },
        {
          "indexed": false,
          "internalType": "uint256",
          "name": "amount",
          "type": "uint256"
        },
        {
          "indexed": false,
          "internalType": "uint256",
          "name": "timestamp",
          "type": "uint256"
        }
      ],
      "name": "DonationMade",
      "type": "event"
    },
    {
      "inputs": [
        {
          "internalType": "uint256",
          "name": "",
          "type": "uint256"
        }
      ],
      "name": "donations",
      "outputs": [
        {
          "internalType": "address",
          "name": "sender",
          "type": "address"
        },
        {
          "internalType": "address payable",
          "name": "receiver",
          "type": "address"
        },
        {
          "internalType": "uint256",
          "name": "amount",
          "type": "uint256"
        },
        {
          "internalType": "uint256",
          "name": "timestamp",
          "type": "uint256"
        }
      ],
      "stateMutability": "view",
      "type": "function",
      "constant": true
    },
    {
      "inputs": [
        {
          "internalType": "address",
          "name": "",
          "type": "address"
        }
      ],
      "name": "receivedAmounts",
      "outputs": [
        {
          "internalType": "uint256",
          "name": "",
          "type": "uint256"
        }
      ],
      "stateMutability": "view",
      "type": "function",
      "constant": true
    },
    {
      "inputs": [
        {
          "internalType": "address",
          "name": "",
          "type": "address"
        }
      ],
      "name": "spentAmounts",
      "outputs": [
        {
          "internalType": "uint256",
          "name": "",
          "type": "uint256"
        }
      ],
      "stateMutability": "view",
      "type": "function",
      "constant": true
    },
    {
      "inputs": [
        {
          "internalType": "address payable",
          "name": "receiver",
          "type": "address"
        }
      ],
      "name": "Donate",
      "outputs": [],
      "stateMutability": "payable",
      "type": "function",
      "payable": true
    },
    {
      "inputs": [
        {
          "internalType": "address",
          "name": "receiver",
          "type": "address"
        }
      ],
      "name": "checkReceivedAmount",
      "outputs": [
        {
          "internalType": "uint256",
          "name": "",
          "type": "uint256"
        }
      ],
      "stateMutability": "view",
      "type": "function",
      "constant": true
    },
    {
      "inputs": [
        {
          "internalType": "address",
          "name": "sender",
          "type": "address"
        }
      ],
      "name": "checkSpentAmount",
      "outputs": [
        {
          "internalType": "uint256",
          "name": "",
          "type": "uint256"
        }
      ],
      "stateMutability": "view",
      "type": "function",
      "constant": true
    },
    {
      "inputs": [],
      "name": "checkSpentAmount",
      "outputs": [
        {
          "internalType": "uint256",
          "name": "",
          "type": "uint256"
        }
      ],
      "stateMutability": "view",
      "type": "function",
      "constant": true
    }
  ],
  "bytecode": "0x608060405234801561001057600080fd5b50610a62806100206000396000f3fe6080604052600436106100705760003560e01c8063aa9279d11161004e578063aa9279d1146100f9578063c7c3d56614610136578063ce1db40b14610173578063f8626af8146101b057610070565b80635048054814610075578063505c8cb9146100b2578063615a3db6146100ce575b600080fd5b34801561008157600080fd5b5061009c600480360381019061009791906106ec565b6101f0565b6040516100a991906108bf565b60405180910390f35b6100cc60048036038101906100c79190610715565b610239565b005b3480156100da57600080fd5b506100e361056d565b6040516100f091906108bf565b60405180910390f35b34801561010557600080fd5b50610120600480360381019061011b91906106ec565b6105b4565b60405161012d91906108bf565b60405180910390f35b34801561014257600080fd5b5061015d600480360381019061015891906106ec565b6105fd565b60405161016a91906108bf565b60405180910390f35b34801561017f57600080fd5b5061019a600480360381019061019591906106ec565b610615565b6040516101a791906108bf565b60405180910390f35b3480156101bc57600080fd5b506101d760048036038101906101d2919061073e565b61062d565b6040516101e7949392919061083a565b60405180910390f35b6000600260008373ffffffffffffffffffffffffffffffffffffffff1673ffffffffffffffffffffffffffffffffffffffff168152602001908152602001600020549050919050565b80600073ffffffffffffffffffffffffffffffffffffffff168173ffffffffffffffffffffffffffffffffffffffff1614156102aa576040517f08c379a00000000000000000000000000000000000000000000000000000000081526004016102a19061089f565b60405180910390fd5b600034116102ed576040517f08c379a00000000000000000000000000000000000000000000000000000000081526004016102e49061087f565b60405180910390fd5b8173ffffffffffffffffffffffffffffffffffffffff166108fc349081150290604051600060405180830381858888f19350505050158015610333573d6000803e3d6000fd5b50600060405180608001604052803373ffffffffffffffffffffffffffffffffffffffff1681526020018473ffffffffffffffffffffffffffffffffffffffff168152602001348152602001428152509050600081908060018154018082558091505060019003906000526020600020906004020160009091909190915060008201518160000160006101000a81548173ffffffffffffffffffffffffffffffffffffffff021916908373ffffffffffffffffffffffffffffffffffffffff16021790555060208201518160010160006101000a81548173ffffffffffffffffffffffffffffffffffffffff021916908373ffffffffffffffffffffffffffffffffffffffff1602179055506040820151816002015560608201518160030155505034600160008573ffffffffffffffffffffffffffffffffffffffff1673ffffffffffffffffffffffffffffffffffffffff16815260200190815260200160002060008282546104a49190610914565b9250508190555034600260003373ffffffffffffffffffffffffffffffffffffffff1673ffffffffffffffffffffffffffffffffffffffff16815260200190815260200160002060008282546104fa9190610914565b925050819055508273ffffffffffffffffffffffffffffffffffffffff163373ffffffffffffffffffffffffffffffffffffffff167f4322cf7bb5bdb39c0e2ffb7af737e3569d51766de459df25281823ffa30b468534426040516105609291906108da565b60405180910390a3505050565b6000600260003373ffffffffffffffffffffffffffffffffffffffff1673ffffffffffffffffffffffffffffffffffffffff16815260200190815260200160002054905090565b6000600160008373ffffffffffffffffffffffffffffffffffffffff1673ffffffffffffffffffffffffffffffffffffffff168152602001908152602001600020549050919050565b60016020528060005260406000206000915090505481565b60026020528060005260406000206000915090505481565b6000818154811061063d57600080fd5b90600052602060002090600402016000915090508060000160009054906101000a900473ffffffffffffffffffffffffffffffffffffffff16908060010160009054906101000a900473ffffffffffffffffffffffffffffffffffffffff16908060020154908060030154905084565b6000813590506106bc816109e7565b92915050565b6000813590506106d1816109fe565b92915050565b6000813590506106e681610a15565b92915050565b6000602082840312156106fe57600080fd5b600061070c848285016106ad565b91505092915050565b60006020828403121561072757600080fd5b6000610735848285016106c2565b91505092915050565b60006020828403121561075057600080fd5b600061075e848285016106d7565b91505092915050565b6107708161097c565b82525050565b61077f8161096a565b82525050565b6000610792602983610903565b91507f446f6e6174696f6e20616d6f756e74206d75737420626520677265617465722060008301527f7468616e207a65726f00000000000000000000000000000000000000000000006020830152604082019050919050565b60006107f8601883610903565b91507f496e76616c6964207265636569766572206164647265737300000000000000006000830152602082019050919050565b610834816109ae565b82525050565b600060808201905061084f6000830187610776565b61085c6020830186610767565b610869604083018561082b565b610876606083018461082b565b95945050505050565b6000602082019050818103600083015261089881610785565b9050919050565b600060208201905081810360008301526108b8816107eb565b9050919050565b60006020820190506108d4600083018461082b565b92915050565b60006040820190506108ef600083018561082b565b6108fc602083018461082b565b9392505050565b600082825260208201905092915050565b600061091f826109ae565b915061092a836109ae565b9250827fffffffffffffffffffffffffffffffffffffffffffffffffffffffffffffffff0382111561095f5761095e6109b8565b5b828201905092915050565b60006109758261098e565b9050919050565b60006109878261098e565b9050919050565b600073ffffffffffffffffffffffffffffffffffffffff82169050919050565b6000819050919050565b7f4e487b7100000000000000000000000000000000000000000000000000000000600052601160045260246000fd5b6109f08161096a565b81146109fb57600080fd5b50565b610a078161097c565b8114610a1257600080fd5b50565b610a1e816109ae565b8114610a2957600080fd5b5056fea2646970667358221220eb88f2757b163d8eb24f1c0910609d4184989dab25d34a6fd619c5588ae7acd264736f6c63430008000033",
  "immutableReferences": {},
  "source": "// SPDX-License-Identifier: MIT\r\npragma solidity ^0.8.0;\r\n\r\ncontract DonationTracker {\r\n    struct Donation {\r\n        address sender;\r\n        address payable receiver;\r\n        uint256 amount;\r\n        uint256 timestamp;\r\n    }\r\n\r\n    // Array to store all donations\r\n    Donation[] public donations;\r\n\r\n    // Mapping to store total amount received by each receiver and spent by each sender\r\n    mapping(address => uint256) public receivedAmounts;\r\n    mapping(address => uint256) public spentAmounts;\r\n\r\n    event DonationMade(\r\n        address indexed sender,\r\n        address indexed receiver,\r\n        uint256 amount,\r\n        uint256 timestamp\r\n    );\r\n\r\n  \r\n    modifier validDonation(address payable receiver) {\r\n        require(receiver != address(0), \"Invalid receiver address\");\r\n        require(msg.value > 0, \"Donation amount must be greater than zero\");\r\n        _;\r\n    }\r\n\r\n    function Donate(address payable receiver)\r\n        public\r\n        payable\r\n        validDonation(receiver)\r\n    {\r\n        // Transfer the msg.value from the sender to the receiver\r\n        receiver.transfer(msg.value);\r\n\r\n        // Create a new donation object with the details received\r\n        Donation memory newDonation = Donation({\r\n            sender: msg.sender,\r\n            receiver: receiver,\r\n            amount: msg.value,\r\n            timestamp: block.timestamp\r\n        });\r\n\r\n        // Add donation to the array\r\n        donations.push(newDonation);\r\n\r\n        // Update the total amount received by the receiver and spent by the sender\r\n        receivedAmounts[receiver] += msg.value;\r\n        spentAmounts[msg.sender] += msg.value;\r\n\r\n        // Emit event with details of donation\r\n        emit DonationMade(msg.sender, receiver, msg.value, block.timestamp);\r\n    }\r\n    \r\n    // Default function to check how much received by an address\r\n    function checkReceivedAmount(address receiver)\r\n        public\r\n        view\r\n        returns (uint256)\r\n    {\r\n        return receivedAmounts[receiver];\r\n    }\r\n\r\n    // Default function to check how much spent by the caller\r\n    function checkSpentAmount() public view returns (uint256) {\r\n        return spentAmounts[msg.sender];\r\n    }\r\n\r\n    // Function to check how much spent by a specific address\r\n    function checkSpentAmount(address sender) public view returns (uint256) {\r\n        return spentAmounts[sender];\r\n    }\r\n}",
  "sourcePath": "C:\\Personal\\Uni\\Sem 6\\Block Chain\\BC Project\\contracts\\DonationTracker.sol",
  "compiler": {
    "name": "solc",
    "version": "0.8.0+commit.c7dfd78e.Emscripten.clang"
  },
  "schemaVersion": "3.4.16",
  "updatedAt": "2024-04-22T20:53:50.496Z",
  "networkType": "ethereum",
  "devdoc": {
    "kind": "dev",
    "methods": {},
    "version": 1
  },
  "userdoc": {
    "kind": "user",
    "methods": {},
    "version": 1
  }
}