{
  "contractName": "DonationTracker",
  "abi": [
    {
      "anonymous": false,
      "inputs": [
        {
          "indexed": true,
          "internalType": "address",
          "name": "sender",
          "type": "address"
        },
        {
          "indexed": false,
          "internalType": "string",
          "name": "receiver",
          "type": "string"
        },
        {
          "indexed": false,
          "internalType": "uint256",
          "name": "amount",
          "type": "uint256"
        },
        {
          "indexed": false,
          "internalType": "uint256",
          "name": "timestamp",
          "type": "uint256"
        }
      ],
      "name": "DonationMade",
      "type": "event"
    },
    {
      "inputs": [
        {
          "internalType": "uint256",
          "name": "",
          "type": "uint256"
        }
      ],
      "name": "donations",
      "outputs": [
        {
          "internalType": "address",
          "name": "sender",
          "type": "address"
        },
        {
          "internalType": "string",
          "name": "receiver",
          "type": "string"
        },
        {
          "internalType": "uint256",
          "name": "amount",
          "type": "uint256"
        },
        {
          "internalType": "uint256",
          "name": "timestamp",
          "type": "uint256"
        }
      ],
      "stateMutability": "view",
      "type": "function",
      "constant": true
    },
    {
      "inputs": [
        {
          "internalType": "string",
          "name": "",
          "type": "string"
        }
      ],
      "name": "receivedAmounts",
      "outputs": [
        {
          "internalType": "uint256",
          "name": "",
          "type": "uint256"
        }
      ],
      "stateMutability": "view",
      "type": "function",
      "constant": true
    },
    {
      "inputs": [
        {
          "internalType": "address",
          "name": "",
          "type": "address"
        }
      ],
      "name": "spentAmounts",
      "outputs": [
        {
          "internalType": "uint256",
          "name": "",
          "type": "uint256"
        }
      ],
      "stateMutability": "view",
      "type": "function",
      "constant": true
    },
    {
      "inputs": [
        {
          "internalType": "string",
          "name": "name",
          "type": "string"
        },
        {
          "internalType": "uint256",
          "name": "value",
          "type": "uint256"
        }
      ],
      "name": "Donate",
      "outputs": [],
      "stateMutability": "nonpayable",
      "type": "function"
    },
    {
      "inputs": [
        {
          "internalType": "string",
          "name": "receiver",
          "type": "string"
        }
      ],
      "name": "checkReceivedAmount",
      "outputs": [
        {
          "internalType": "uint256",
          "name": "",
          "type": "uint256"
        }
      ],
      "stateMutability": "view",
      "type": "function",
      "constant": true
    },
    {
      "inputs": [
        {
          "internalType": "address",
          "name": "sender",
          "type": "address"
        }
      ],
      "name": "checkSpentAmount",
      "outputs": [
        {
          "internalType": "uint256",
          "name": "",
          "type": "uint256"
        }
      ],
      "stateMutability": "view",
      "type": "function",
      "constant": true
    },
    {
      "inputs": [],
      "name": "checkSpentAmount",
      "outputs": [
        {
          "internalType": "uint256",
          "name": "",
          "type": "uint256"
        }
      ],
      "stateMutability": "view",
      "type": "function",
      "constant": true
    }
  ],
  "bytecode": "0x608060405234801561001057600080fd5b50610d99806100206000396000f3fe608060405234801561001057600080fd5b506004361061007d5760003560e01c8063b68fc17f1161005b578063b68fc17f14610100578063ce1db40b14610130578063f3550ad114610160578063f8626af81461017c5761007d565b80635048054814610082578063615a3db6146100b25780638da7d1d9146100d0575b600080fd5b61009c60048036038101906100979190610772565b6101af565b6040516100a99190610aee565b60405180910390f35b6100ba6101f8565b6040516100c79190610aee565b60405180910390f35b6100ea60048036038101906100e5919061079b565b61023f565b6040516100f79190610aee565b60405180910390f35b61011a6004803603810190610115919061079b565b610267565b6040516101279190610aee565b60405180910390f35b61014a60048036038101906101459190610772565b610295565b6040516101579190610aee565b60405180910390f35b61017a600480360381019061017591906107dc565b6102ad565b005b61019660048036038101906101919190610830565b610555565b6040516101a69493929190610a04565b60405180910390f35b6000600260008373ffffffffffffffffffffffffffffffffffffffff1673ffffffffffffffffffffffffffffffffffffffff168152602001908152602001600020549050919050565b6000600260003373ffffffffffffffffffffffffffffffffffffffff1673ffffffffffffffffffffffffffffffffffffffff16815260200190815260200160002054905090565b600060018260405161025191906109ed565b9081526020016040518091039020549050919050565b6001818051602081018201805184825260208301602085012081835280955050505050506000915090505481565b60026020528060005260406000206000915090505481565b818160008251116102f3576040517f08c379a00000000000000000000000000000000000000000000000000000000081526004016102ea90610ace565b60405180910390fd5b60008111610336576040517f08c379a000000000000000000000000000000000000000000000000000000000815260040161032d90610a8e565b60405180910390fd5b803373ffffffffffffffffffffffffffffffffffffffff16311015610390576040517f08c379a000000000000000000000000000000000000000000000000000000000815260040161038790610aae565b60405180910390fd5b600060405180608001604052803373ffffffffffffffffffffffffffffffffffffffff168152602001868152602001858152602001428152509050600081908060018154018082558091505060019003906000526020600020906004020160009091909190915060008201518160000160006101000a81548173ffffffffffffffffffffffffffffffffffffffff021916908373ffffffffffffffffffffffffffffffffffffffff160217905550602082015181600101908051906020019061045a92919061063d565b50604082015181600201556060820151816003015550508360018660405161048291906109ed565b9081526020016040518091039020600082825461049f9190610b91565b9250508190555083600260003373ffffffffffffffffffffffffffffffffffffffff1673ffffffffffffffffffffffffffffffffffffffff16815260200190815260200160002060008282546104f59190610b91565b925050819055503373ffffffffffffffffffffffffffffffffffffffff167f71399051bc95e34c2315bbb2c6cf0df79957a51b6d385f9dd26fc1a33c6926b186864260405161054693929190610a50565b60405180910390a25050505050565b6000818154811061056557600080fd5b90600052602060002090600402016000915090508060000160009054906101000a900473ffffffffffffffffffffffffffffffffffffffff16908060010180546105ae90610c65565b80601f01602080910402602001604051908101604052809291908181526020018280546105da90610c65565b80156106275780601f106105fc57610100808354040283529160200191610627565b820191906000526020600020905b81548152906001019060200180831161060a57829003601f168201915b5050505050908060020154908060030154905084565b82805461064990610c65565b90600052602060002090601f01602090048101928261066b57600085556106b2565b82601f1061068457805160ff19168380011785556106b2565b828001600101855582156106b2579182015b828111156106b1578251825591602001919060010190610696565b5b5090506106bf91906106c3565b5090565b5b808211156106dc5760008160009055506001016106c4565b5090565b60006106f36106ee84610b3a565b610b09565b90508281526020810184848401111561070b57600080fd5b610716848285610c23565b509392505050565b60008135905061072d81610d35565b92915050565b600082601f83011261074457600080fd5b81356107548482602086016106e0565b91505092915050565b60008135905061076c81610d4c565b92915050565b60006020828403121561078457600080fd5b60006107928482850161071e565b91505092915050565b6000602082840312156107ad57600080fd5b600082013567ffffffffffffffff8111156107c757600080fd5b6107d384828501610733565b91505092915050565b600080604083850312156107ef57600080fd5b600083013567ffffffffffffffff81111561080957600080fd5b61081585828601610733565b92505060206108268582860161075d565b9150509250929050565b60006020828403121561084257600080fd5b60006108508482850161075d565b91505092915050565b61086281610be7565b82525050565b600061087382610b6a565b61087d8185610b75565b935061088d818560208601610c32565b61089681610d24565b840191505092915050565b60006108ac82610b6a565b6108b68185610b86565b93506108c6818560208601610c32565b80840191505092915050565b60006108df602983610b75565b91507f446f6e6174696f6e20616d6f756e74206d75737420626520677265617465722060008301527f7468616e207a65726f00000000000000000000000000000000000000000000006020830152604082019050919050565b6000610945602383610b75565b91507f53656e64657220646f6573206e6f74206861766520656e6f7567682062616c6160008301527f6e636500000000000000000000000000000000000000000000000000000000006020830152604082019050919050565b60006109ab601f83610b75565b91507f52656365697665722773206e616d652063616e6e6f7420626520656d707479006000830152602082019050919050565b6109e781610c19565b82525050565b60006109f982846108a1565b915081905092915050565b6000608082019050610a196000830187610859565b8181036020830152610a2b8186610868565b9050610a3a60408301856109de565b610a4760608301846109de565b95945050505050565b60006060820190508181036000830152610a6a8186610868565b9050610a7960208301856109de565b610a8660408301846109de565b949350505050565b60006020820190508181036000830152610aa7816108d2565b9050919050565b60006020820190508181036000830152610ac781610938565b9050919050565b60006020820190508181036000830152610ae78161099e565b9050919050565b6000602082019050610b0360008301846109de565b92915050565b6000604051905081810181811067ffffffffffffffff82111715610b3057610b2f610cf5565b5b8060405250919050565b600067ffffffffffffffff821115610b5557610b54610cf5565b5b601f19601f8301169050602081019050919050565b600081519050919050565b600082825260208201905092915050565b600081905092915050565b6000610b9c82610c19565b9150610ba783610c19565b9250827fffffffffffffffffffffffffffffffffffffffffffffffffffffffffffffffff03821115610bdc57610bdb610c97565b5b828201905092915050565b6000610bf282610bf9565b9050919050565b600073ffffffffffffffffffffffffffffffffffffffff82169050919050565b6000819050919050565b82818337600083830152505050565b60005b83811015610c50578082015181840152602081019050610c35565b83811115610c5f576000848401525b50505050565b60006002820490506001821680610c7d57607f821691505b60208210811415610c9157610c90610cc6565b5b50919050565b7f4e487b7100000000000000000000000000000000000000000000000000000000600052601160045260246000fd5b7f4e487b7100000000000000000000000000000000000000000000000000000000600052602260045260246000fd5b7f4e487b7100000000000000000000000000000000000000000000000000000000600052604160045260246000fd5b6000601f19601f8301169050919050565b610d3e81610be7565b8114610d4957600080fd5b50565b610d5581610c19565b8114610d6057600080fd5b5056fea26469706673582212201d8761330aa36b3b09609a075211f71d8beb3d1c568ff3b7f4aa4e8c8dfa1c3064736f6c63430008000033",
  "immutableReferences": {},
  "source": "// SPDX-License-Identifier: MIT\r\npragma solidity ^0.8.0;\r\n\r\ncontract DonationTracker {\r\n    struct Donation {\r\n        address sender;\r\n        string receiver;\r\n        uint256 amount;\r\n        uint256 timestamp;\r\n    }\r\n\r\n    // Array to store all donations\r\n    Donation[] public donations;\r\n\r\n    // Mapping to store total amount received by each receiver and spent by each sender\r\n    mapping(string => uint256) public receivedAmounts;\r\n    mapping(address => uint256) public spentAmounts;\r\n\r\n    event DonationMade(address indexed sender, string receiver, uint256 amount, uint256 timestamp);\r\n\r\n    modifier validDonation(string memory name, uint256 value) {\r\n        require(bytes(name).length > 0, \"Receiver's name cannot be empty\");\r\n        require(value > 0, \"Donation amount must be greater than zero\");\r\n        require(msg.sender.balance >= value, \"Sender does not have enough balance\");\r\n        _;\r\n    }\r\n\r\n\r\n    // TODO: Check this with node js later\r\n    // function Donate(string memory name, uint256 value) public payable validDonation(name, value) {\r\n\r\n        \r\n    function Donate(string memory name, uint256 value) public  validDonation(name, value) {\r\n        // Create a new donation object with the details received\r\n        Donation memory newDonation = Donation({\r\n            sender: msg.sender,\r\n            receiver: name,\r\n            amount: value,\r\n            timestamp: block.timestamp\r\n        });\r\n\r\n        // Add donation to the array\r\n        donations.push(newDonation);\r\n\r\n        // Update the total amount received by the receiver and spent by the sender\r\n        receivedAmounts[name] += value;\r\n        spentAmounts[msg.sender] += value;\r\n\r\n        // TODO: Check this with node js later\r\n        // // Transfer the donation amount to the receiver\r\n        // payable(address(receiver)).transfer(value);\r\n\r\n        // Emit event with details of donation\r\n        emit DonationMade(msg.sender, name, value, block.timestamp);\r\n    }\r\n\r\n    // Default function to check how much received by user/organization\r\n    function checkReceivedAmount(string memory receiver) public view returns (uint256) {\r\n        return receivedAmounts[receiver];\r\n    }\r\n\r\n    // Default function to check how much spent by user\r\n    function checkSpentAmount() public view returns (uint256) {\r\n        return spentAmounts[msg.sender];\r\n    }\r\n\r\n    // Function to check how much spent by specific user/organization\r\n    function checkSpentAmount(address sender) public view returns (uint256) {\r\n        return spentAmounts[sender];\r\n    }\r\n}",
  "sourcePath": "C:\\Personal\\Uni\\Sem 6\\Block Chain\\BC Project\\contracts\\DonationTracker.sol",
  "compiler": {
    "name": "solc",
    "version": "0.8.0+commit.c7dfd78e.Emscripten.clang"
  },
  "schemaVersion": "3.4.16",
  "updatedAt": "2024-04-22T07:40:58.193Z",
  "networkType": "ethereum",
  "devdoc": {
    "kind": "dev",
    "methods": {},
    "version": 1
  },
  "userdoc": {
    "kind": "user",
    "methods": {},
    "version": 1
  }
}