{
  "contractName": "DonationTracker",
  "abi": [
    {
      "anonymous": false,
      "inputs": [
        {
          "indexed": true,
          "internalType": "address",
          "name": "sender",
          "type": "address"
        },
        {
          "indexed": true,
          "internalType": "address",
          "name": "receiver",
          "type": "address"
        },
        {
          "indexed": false,
          "internalType": "uint256",
          "name": "amount",
          "type": "uint256"
        },
        {
          "indexed": false,
          "internalType": "uint256",
          "name": "timestamp",
          "type": "uint256"
        }
      ],
      "name": "DonationMade",
      "type": "event"
    },
    {
      "inputs": [
        {
          "internalType": "uint256",
          "name": "",
          "type": "uint256"
        }
      ],
      "name": "donations",
      "outputs": [
        {
          "internalType": "address",
          "name": "sender",
          "type": "address"
        },
        {
          "internalType": "address payable",
          "name": "receiver",
          "type": "address"
        },
        {
          "internalType": "uint256",
          "name": "amount",
          "type": "uint256"
        },
        {
          "internalType": "uint256",
          "name": "timestamp",
          "type": "uint256"
        }
      ],
      "stateMutability": "view",
      "type": "function",
      "constant": true
    },
    {
      "inputs": [
        {
          "internalType": "address",
          "name": "",
          "type": "address"
        }
      ],
      "name": "receivedAmounts",
      "outputs": [
        {
          "internalType": "uint256",
          "name": "",
          "type": "uint256"
        }
      ],
      "stateMutability": "view",
      "type": "function",
      "constant": true
    },
    {
      "inputs": [
        {
          "internalType": "address",
          "name": "",
          "type": "address"
        }
      ],
      "name": "spentAmounts",
      "outputs": [
        {
          "internalType": "uint256",
          "name": "",
          "type": "uint256"
        }
      ],
      "stateMutability": "view",
      "type": "function",
      "constant": true
    },
    {
      "inputs": [
        {
          "internalType": "address payable",
          "name": "receiver",
          "type": "address"
        }
      ],
      "name": "Donate",
      "outputs": [],
      "stateMutability": "payable",
      "type": "function",
      "payable": true
    },
    {
      "inputs": [
        {
          "internalType": "address",
          "name": "receiver",
          "type": "address"
        }
      ],
      "name": "checkReceivedAmount",
      "outputs": [
        {
          "internalType": "uint256",
          "name": "",
          "type": "uint256"
        }
      ],
      "stateMutability": "view",
      "type": "function",
      "constant": true
    },
    {
      "inputs": [
        {
          "internalType": "address",
          "name": "sender",
          "type": "address"
        }
      ],
      "name": "checkSpentAmount",
      "outputs": [
        {
          "internalType": "uint256",
          "name": "",
          "type": "uint256"
        }
      ],
      "stateMutability": "view",
      "type": "function",
      "constant": true
    },
    {
      "inputs": [],
      "name": "checkSpentAmount",
      "outputs": [
        {
          "internalType": "uint256",
          "name": "",
          "type": "uint256"
        }
      ],
      "stateMutability": "view",
      "type": "function",
      "constant": true
    },
    {
      "inputs": [],
      "name": "getDonations",
      "outputs": [
        {
          "components": [
            {
              "internalType": "address",
              "name": "sender",
              "type": "address"
            },
            {
              "internalType": "address payable",
              "name": "receiver",
              "type": "address"
            },
            {
              "internalType": "uint256",
              "name": "amount",
              "type": "uint256"
            },
            {
              "internalType": "uint256",
              "name": "timestamp",
              "type": "uint256"
            }
          ],
          "internalType": "struct DonationTracker.Donation[]",
          "name": "",
          "type": "tuple[]"
        }
      ],
      "stateMutability": "view",
      "type": "function",
      "constant": true
    }
  ],
  "bytecode": "0x608060405234801561001057600080fd5b50610d0a806100206000396000f3fe60806040526004361061007b5760003560e01c8063c7c3d5661161004e578063c7c3d56614610141578063ce1db40b1461017e578063e25f8416146101bb578063f8626af8146101e65761007b565b80635048054814610080578063505c8cb9146100bd578063615a3db6146100d9578063aa9279d114610104575b600080fd5b34801561008c57600080fd5b506100a760048036038101906100a29190610841565b610226565b6040516100b49190610b2e565b60405180910390f35b6100d760048036038101906100d2919061086a565b61026f565b005b3480156100e557600080fd5b506100ee6105a3565b6040516100fb9190610b2e565b60405180910390f35b34801561011057600080fd5b5061012b60048036038101906101269190610841565b6105ea565b6040516101389190610b2e565b60405180910390f35b34801561014d57600080fd5b5061016860048036038101906101639190610841565b610633565b6040516101759190610b2e565b60405180910390f35b34801561018a57600080fd5b506101a560048036038101906101a09190610841565b61064b565b6040516101b29190610b2e565b60405180910390f35b3480156101c757600080fd5b506101d0610663565b6040516101dd9190610acc565b60405180910390f35b3480156101f257600080fd5b5061020d60048036038101906102089190610893565b610782565b60405161021d9493929190610a87565b60405180910390f35b6000600260008373ffffffffffffffffffffffffffffffffffffffff1673ffffffffffffffffffffffffffffffffffffffff168152602001908152602001600020549050919050565b80600073ffffffffffffffffffffffffffffffffffffffff168173ffffffffffffffffffffffffffffffffffffffff1614156102e0576040517f08c379a00000000000000000000000000000000000000000000000000000000081526004016102d790610b0e565b60405180910390fd5b60003411610323576040517f08c379a000000000000000000000000000000000000000000000000000000000815260040161031a90610aee565b60405180910390fd5b8173ffffffffffffffffffffffffffffffffffffffff166108fc349081150290604051600060405180830381858888f19350505050158015610369573d6000803e3d6000fd5b50600060405180608001604052803373ffffffffffffffffffffffffffffffffffffffff1681526020018473ffffffffffffffffffffffffffffffffffffffff168152602001348152602001428152509050600081908060018154018082558091505060019003906000526020600020906004020160009091909190915060008201518160000160006101000a81548173ffffffffffffffffffffffffffffffffffffffff021916908373ffffffffffffffffffffffffffffffffffffffff16021790555060208201518160010160006101000a81548173ffffffffffffffffffffffffffffffffffffffff021916908373ffffffffffffffffffffffffffffffffffffffff1602179055506040820151816002015560608201518160030155505034600160008573ffffffffffffffffffffffffffffffffffffffff1673ffffffffffffffffffffffffffffffffffffffff16815260200190815260200160002060008282546104da9190610bbc565b9250508190555034600260003373ffffffffffffffffffffffffffffffffffffffff1673ffffffffffffffffffffffffffffffffffffffff16815260200190815260200160002060008282546105309190610bbc565b925050819055508273ffffffffffffffffffffffffffffffffffffffff163373ffffffffffffffffffffffffffffffffffffffff167f4322cf7bb5bdb39c0e2ffb7af737e3569d51766de459df25281823ffa30b46853442604051610596929190610b49565b60405180910390a3505050565b6000600260003373ffffffffffffffffffffffffffffffffffffffff1673ffffffffffffffffffffffffffffffffffffffff16815260200190815260200160002054905090565b6000600160008373ffffffffffffffffffffffffffffffffffffffff1673ffffffffffffffffffffffffffffffffffffffff168152602001908152602001600020549050919050565b60016020528060005260406000206000915090505481565b60026020528060005260406000206000915090505481565b60606000805480602002602001604051908101604052809291908181526020016000905b8282101561077957838290600052602060002090600402016040518060800160405290816000820160009054906101000a900473ffffffffffffffffffffffffffffffffffffffff1673ffffffffffffffffffffffffffffffffffffffff1673ffffffffffffffffffffffffffffffffffffffff1681526020016001820160009054906101000a900473ffffffffffffffffffffffffffffffffffffffff1673ffffffffffffffffffffffffffffffffffffffff1673ffffffffffffffffffffffffffffffffffffffff1681526020016002820154815260200160038201548152505081526020019060010190610687565b50505050905090565b6000818154811061079257600080fd5b90600052602060002090600402016000915090508060000160009054906101000a900473ffffffffffffffffffffffffffffffffffffffff16908060010160009054906101000a900473ffffffffffffffffffffffffffffffffffffffff16908060020154908060030154905084565b60008135905061081181610c8f565b92915050565b60008135905061082681610ca6565b92915050565b60008135905061083b81610cbd565b92915050565b60006020828403121561085357600080fd5b600061086184828501610802565b91505092915050565b60006020828403121561087c57600080fd5b600061088a84828501610817565b91505092915050565b6000602082840312156108a557600080fd5b60006108b38482850161082c565b91505092915050565b60006108c88383610a14565b60808301905092915050565b6108dd81610c24565b82525050565b6108ec81610c24565b82525050565b6108fb81610c12565b82525050565b61090a81610c12565b82525050565b600061091b82610b82565b6109258185610b9a565b935061093083610b72565b8060005b8381101561096157815161094888826108bc565b975061095383610b8d565b925050600181019050610934565b5085935050505092915050565b600061097b602983610bab565b91507f446f6e6174696f6e20616d6f756e74206d75737420626520677265617465722060008301527f7468616e207a65726f00000000000000000000000000000000000000000000006020830152604082019050919050565b60006109e1601883610bab565b91507f496e76616c6964207265636569766572206164647265737300000000000000006000830152602082019050919050565b608082016000820151610a2a60008501826108f2565b506020820151610a3d60208501826108d4565b506040820151610a506040850182610a69565b506060820151610a636060850182610a69565b50505050565b610a7281610c56565b82525050565b610a8181610c56565b82525050565b6000608082019050610a9c6000830187610901565b610aa960208301866108e3565b610ab66040830185610a78565b610ac36060830184610a78565b95945050505050565b60006020820190508181036000830152610ae68184610910565b905092915050565b60006020820190508181036000830152610b078161096e565b9050919050565b60006020820190508181036000830152610b27816109d4565b9050919050565b6000602082019050610b436000830184610a78565b92915050565b6000604082019050610b5e6000830185610a78565b610b6b6020830184610a78565b9392505050565b6000819050602082019050919050565b600081519050919050565b6000602082019050919050565b600082825260208201905092915050565b600082825260208201905092915050565b6000610bc782610c56565b9150610bd283610c56565b9250827fffffffffffffffffffffffffffffffffffffffffffffffffffffffffffffffff03821115610c0757610c06610c60565b5b828201905092915050565b6000610c1d82610c36565b9050919050565b6000610c2f82610c36565b9050919050565b600073ffffffffffffffffffffffffffffffffffffffff82169050919050565b6000819050919050565b7f4e487b7100000000000000000000000000000000000000000000000000000000600052601160045260246000fd5b610c9881610c12565b8114610ca357600080fd5b50565b610caf81610c24565b8114610cba57600080fd5b50565b610cc681610c56565b8114610cd157600080fd5b5056fea2646970667358221220f70cbeb2106056bcc190da7282515a372db55a33ed74d12cc2243ea7d9f92b5e64736f6c63430008000033",
  "immutableReferences": {},
  "source": "// SPDX-License-Identifier: MIT\r\npragma solidity ^0.8.0;\r\n\r\ncontract DonationTracker {\r\n    struct Donation {\r\n        address sender;\r\n        address payable receiver;\r\n        uint256 amount;\r\n        uint256 timestamp;\r\n    }\r\n\r\n    // Array to store all donations\r\n    Donation[] public donations;\r\n\r\n    // Mapping to store total amount received by each receiver and spent by each sender\r\n    mapping(address => uint256) public receivedAmounts;\r\n    mapping(address => uint256) public spentAmounts;\r\n\r\n    event DonationMade(\r\n        address indexed sender,\r\n        address indexed receiver,\r\n        uint256 amount,\r\n        uint256 timestamp\r\n    );\r\n\r\n  \r\n    modifier validDonation(address payable receiver) {\r\n        require(receiver != address(0), \"Invalid receiver address\");\r\n        require(msg.value > 0, \"Donation amount must be greater than zero\");\r\n        _;\r\n    }\r\n\r\n    function Donate(address payable receiver)\r\n        public\r\n        payable\r\n        validDonation(receiver)\r\n    {\r\n        // Transfer the msg.value from the sender to the receiver\r\n        receiver.transfer(msg.value);\r\n\r\n        // Create a new donation object with the details received\r\n        Donation memory newDonation = Donation({\r\n            sender: msg.sender,\r\n            receiver: receiver,\r\n            amount: msg.value,\r\n            timestamp: block.timestamp\r\n        });\r\n\r\n        // Add donation to the array\r\n        donations.push(newDonation);\r\n\r\n        // Update the total amount received by the receiver and spent by the sender\r\n        receivedAmounts[receiver] += msg.value;\r\n        spentAmounts[msg.sender] += msg.value;\r\n\r\n        // Emit event with details of donation\r\n        emit DonationMade(msg.sender, receiver, msg.value, block.timestamp);\r\n    }\r\n    \r\n    // Default function to check how much received by an address\r\n    function checkReceivedAmount(address receiver)\r\n        public\r\n        view\r\n        returns (uint256)\r\n    {\r\n        return receivedAmounts[receiver];\r\n    }\r\n\r\n    // Default function to check how much spent by the caller\r\n    function checkSpentAmount() public view returns (uint256) {\r\n        return spentAmounts[msg.sender];\r\n    }\r\n\r\n    // Function to check how much spent by a specific address\r\n    function checkSpentAmount(address sender) public view returns (uint256) {\r\n        return spentAmounts[sender];\r\n    }\r\n\r\n    // create a function to return all the donation data\r\n    function getDonations() public view returns (Donation[] memory) {\r\n        return donations;\r\n    }\r\n}",
  "sourcePath": "C:\\Personal\\Uni\\Sem 6\\Block Chain\\BC Project\\contracts\\DonationTracker.sol",
  "compiler": {
    "name": "solc",
    "version": "0.8.0+commit.c7dfd78e.Emscripten.clang"
  },
  "schemaVersion": "3.4.16",
  "updatedAt": "2024-04-25T06:36:14.236Z",
  "networkType": "ethereum",
  "devdoc": {
    "kind": "dev",
    "methods": {},
    "version": 1
  },
  "userdoc": {
    "kind": "user",
    "methods": {},
    "version": 1
  }
}